:020000040800F2
:1000000000000220450600081D0600081F06000823
:10001000210600082306000825060008000000004D
:10002000000000000000000000000000270600089B
:1000300029060008000000002B0600082D06000815
:100040009506000895060008950600089506000824
:100050009506000895060008950600089506000814
:100060009506000895060008950600089506000804
:1000700095060008950600089506000895060008F4
:1000800095060008950600089506000895060008E4
:1000900095060008950600089506000895060008D4
:1000A00095060008950600089506000895060008C4
:1000B00095060008950600089506000895060008B4
:1000C00095060008950600089506000895060008A4
:1000D0009506000895060008950600089506000894
:1000E0009506000895060008950600089506000884
:1000F0009506000895060008950600089506000874
:100100009506000895060008950600089506000863
:100110009506000895060008950600089506000853
:100120009506000895060008950600089506000843
:100130009506000895060008950600089506000833
:100140009506000895060008950600089506000823
:100150009506000895060008950600089506000813
:100160009506000895060008950600089506000803
:100170009506000895060008950600080000000096
:08018000950600089506000831
:1001880010B5054C237833B9044B13B10448AFF3C9
:1001980000800123237010BD0C0000200000000027
:1001A800200F000808B5034B1BB103490348AFF300
:1001B800008008BD0000000010000020200F00088B
:1001C80053B94AB9002908BF00281CBF4FF0FF31B6
:1001D8004FF0FF3000F070B9ADF1080C6DE904CEB6
:1001E80000F006F8DDF804E0DDE9022304B070470A
:1001F8002DE9F047089E0D4604460F46002B4AD1CC
:100208008A42944665D9B2FA82F343B102FA03FCF2
:10021800C3F120029F4020FA02F217439C404FEAA4
:100228001C4E1FFA8CF5B7FBFEF1220C0EFB117762
:1002380042EA074201FB05F090420AD91CEB020290
:1002480001F1FF3780F01C81904240F21981023998
:100258006244121AA4B2B2FBFEF00EFB102244EA6A
:10026800024400FB05F5A5420AD91CEB040400F181
:10027800FF3280F00781A54240F2048164440238CD
:1002880040EA0140641B00211EB1DC400023C6E99E
:100298000043BDE8F0878B4208D9002E00F0ED80BE
:1002A8000021C6E900050846BDE8F087B3FA83F1E6
:1002B800002949D1AB4202D3824200F2F880841A65
:1002C80065EB030201201746002EE2D0C6E900477D
:1002D800DFE702B9FFDEB2FA82F3002B40F090802C
:1002E8008A1A4FEA1C471FFA8CFE0121B2FBF7F568
:1002F80007FB1520220C42EA00420EFB05F0904253
:1003080008D91CEB020205F1FF3802D2904200F234
:10031800CB804546121AA4B2B2FBF7F007FB1022B5
:1003280044EA02440EFB00FEA64508D91CEB04046F
:1003380000F1FF3202D2A64500F2BB801046A4EBC2
:100348000E0440EA05409FE7C1F120078B4022FADE
:1003580007FC4CEA030C05FA01F420FA07F3FD4008
:100368004FEA1C492343B5FBF9F81FFA8CFE09FB39
:1003780018551C0C44EA054408FB0EF5A54202FA80
:1003880001F200FA01F00BD91CEB040408F1FF3A62
:1003980080F08880A54240F28580A8F10208644474
:1003A800641B9DB2B4FBF9F309FB134445EA04440A
:1003B80003FB0EFEA64508D91CEB040403F1FF3528
:1003C8006CD2A6456AD9023B644443EA0843A3FBBE
:1003D8000295A4EB0E04AC42C846AE4656D353D0A1
:1003E80056B1B0EB080264EB0E0404FA07F7CA40F2
:1003F800CC401743C6E9007418460021BDE8F087D1
:10040800C3F1200102FA03FC20FA01F225FA01F1F6
:100418009D402A434FEA1C471FFA8CFEB1FBF7F0B8
:1004280007FB1015110C41EA054100FB0EF58D4242
:1004380004FA03F408D91CEB010100F1FF382FD2AC
:100448008D422DD902386144491B92B2B1FBF7F5B0
:1004580007FB151142EA014205FB0EF1914208D94A
:100468001CEB020205F1FF3816D2914214D9023D65
:100478006244521A45EA004138E73146304608E7F7
:100488003946E6E61046FBE64845A9D2B9EB02082C
:1004980065EB0C0E013BA3E74546EAE72B4694E7DC
:1004A8004046D1E7D0467BE7023D624432E7084642
:1004B8000AE76444023842E7704700BF00B595B0C8
:1004C8002C22002109A800F0FBFC1422002103A81B
:1004D80000F0F6FC0023194A0193116C41F0805199
:1004E8001164126C02F080520192019A144A02932C
:1004F800116841F48041116012680E9302F4804241
:100508000292029A0222089201201022CDE90B02DF
:1005180008A800F061FA014608B172B6FEE70F2399
:10052800CDE90330CDE90500079003A800F02EFCC3
:1005380008B172B6FEE715B05DF804FB003802405A
:100548000070004000B589B000F0C6F8FFF7B6FFAC
:100558001422002103A800F0B3FC00241D4B0094D2
:100568001A6B1D4842F080021A631A6B02F080026F
:100578000092009A01941A6B42F008021A631A6BEF
:1005880002F008020192019A02941A6B42F00102E9
:100598001A631B6B03F00103224602934FF40041D8
:1005A800029B00F00BFA4FF4004201230A4803A90A
:1005B800CDE90544CDE9032300F026F9064C204691
:1005C8004FF4004100F0FFF94FF47A7000F0B0F8F2
:1005D800F5E700BF00380240000C024082B00C4B27
:1005E800002100915A6C42F480425A645A6C02F419
:1005F80080420092009A01911A6C42F080521A646B
:100608001B6C03F080530193019B02B0704700BF3D
:1006180000380240FEE7FEE7FEE7FEE7FEE7704728
:100628007047704700F072B8034AD2F8883043F434
:100638007003C2F88830704700ED00E0DFF834D06E
:10064800FFF7F2FF0C480D490D4A002302E0D45889
:10065800C4500433C4188C42F9D30A4A0A4C002304
:1006680001E013600432A242FBD300F031FCFFF733
:1006780069FF704700000220000000200C000020E5
:10068800580F00080C0000202C000020FEE7000096
:1006980038B50E4B1A784FF47A73B3FBF2F30C4A61
:1006A80005461068B0FBF3F000F09AF8044658B914
:1006B8000F2D09D8024629464FF0FF3000F05EF8AA
:1006C800044B20461D6038BD0120FCE704000020D3
:1006D800000000200800002008B50B4B1A6842F4FF
:1006E80000721A601A6842F480621A601A6842F44A
:1006F80080721A60032000F02FF80F20FFF7C8FF60
:10070800FFF76CFF002008BD003C0240034A044B81
:1007180011681B780B441360704700BF2800002045
:1007280004000020014B1868704700BF2800002013
:1007380038B50446FFF7F6FF631C1CBF054B1B7852
:10074800054618BFE418FFF7EDFF431BA342FAD391
:1007580038BD00BF040000200749CA6822F4E062DF
:100768000302120403F4E063120C134343F0BF6363
:1007780043F40033CB60704700ED00E0164B30B512
:10078800DC68C4F30224C4F10703251D042B28BF29
:100798000423062D4FF0FF358CBF033C002405FAD7
:1007A80003F321EA0303A54022EA0502A340002837
:1007B80043EA0203ACBF00F16040084A4FEA031362
:1007C800B8BF00F00F00DBB2AABF00F561401354B8
:1007D80080F8003330BD00BF00ED00E014ED00E00C
:1007E8000138B0F1807F0BD24FF0E023054A586101
:1007F800F02182F823100020072298611A617047BF
:100808000120704700ED00E02DE9F74FDFF8A891CF
:10081800674A00230D6801249C4004EA050CAC4398
:1008280040F0B1804D6805F003044FEA4308032601
:10083800671E06FA08F6012F6FEA060634D887689D
:1008480007EA060ECF6807FA08F747EA0E07876037
:10085800476827EA0C0EC5F300179F4047EA0E07C2
:100868004760C76807EA060E8F6807FA08F747EA7D
:100878000E07022CC76019D14FEAD30A00EB8A0A87
:1008880003F0070BDAF820704FEA8B0B4FF00F0ECE
:100898000EFA0BFE27EA0E0E0F6907FA0BF747EA66
:1008A8000E07CAF8207001E0032CDAD1076804FAB1
:1008B80008F437403C4315F4403F046063D04FF0E0
:1008C800000ACDF804A0D9F844603A4C46F48046B2
:1008D800C9F84460D9F8446006F480460196019E40
:1008E80023F0030606F1804606F59C3603F0030E56
:1008F800D6F808804FEA8E0E0F2707FA0EF7A042A7
:1009080028EA070746D004F58064A04244D004F5DD
:100918008064A04242D004F58064A04240D004F52F
:100928008064A0423ED004F58064A0423CD004F527
:100938008064A0423AD004F58064A0420CBF07242A
:10094800082404FA0EF43C43B46094686FEA0C0679
:10095800EF0254BF34404CEA04049460D468AF02F8
:1009680054BF34404CEA0404D4605468AF0354BF05
:1009780034404CEA040454601468ED0354BF344016
:100988004CEA040414600133102B7FF443AF03B026
:10099800BDE8F08F5446D4E70124D2E70224D0E71B
:1009A8000324CEE70424CCE70524CAE70624C8E7D5
:1009B800003C014000000240003802400AB1816159
:1009C80070470904FBE7436901EA030221EA0301CE
:1009D80041EA0241816170472DE9F341044640B381
:1009E8000368DD0710D4236898075BD423681A07C7
:1009F80000F19D8023685B0700F1BD80A069002895
:100A080040F0248100202CE08D4B9A6802F00C0203
:100A1800042A07D09A6802F00C02082A0BD15B68F6
:100A2800590208D5864B1B689A03DCD56368002BEE
:100A3800D9D1012015E06368814DB3F5803F13D10A
:100A48002B6843F480332B60FFF76CFE7C4E054621
:100A580033689B03C7D4FFF765FE401B6428F7D9AA
:100A6800032002B0BDE8F081B3F5A02F04D12B68B4
:100A780043F480232B60E3E72A6822F480322A605B
:100A88002A6822F480222A60002BDDD1FFF74AFE73
:100A980006462B689F03A6D5FFF744FE801B6428F3
:100AA800F7D9DDE7664B9A6812F00C0F07D09A6801
:100AB80002F00C02082A11D15B685E020ED4604A6B
:100AC80013689D0702D5E368012BB2D11368216929
:100AD80023F0F80343EAC103136087E7E268594B40
:100AE800B2B101221A60FFF71DFE554D06462B686C
:100AF800980707D52B68226923F0F80343EAC20355
:100B08002B6073E7FFF70EFE801B0228EFD9A7E7DB
:100B18001A60FFF707FE4A4E0546336899077FF5C6
:100B280065AFFFF7FFFD401B0228F6D998E7626919
:100B3800444B82B10122C3F8802EFFF7F3FD404EEB
:100B48000546736F9F073FF555AFFFF7EBFD401B59
:100B58000228F6D984E7C3F8802EFFF7E3FD384E64
:100B68000546736F98077FF545AFFFF7DBFD401B20
:100B78000228F6D974E7324B1A6C12F0805228D149
:100B880001921A6C42F080521A641B6C03F0805375
:100B98000193019B01272C4D2B68D9051BD5A36810
:100BA800274D012B27D12B6F43F001032B67FFF74C
:100BB800B9FD234E054641F28838336F9B0739D576
:100BC800002F3FF41BAF1E4A136C23F080531364AD
:100BD80014E70027DFE72B6843F480732B60FFF7E7
:100BE800A1FD06462B68DA05D9D4FFF79BFD801BCB
:100BF8000228F7D934E7052B04D12B6F43F00403FF
:100C08002B67D0E72A6F22F001022A672A6F22F0A9
:100C180004022A67002BCAD1FFF784FD41F2883805
:100C280006462B6F9807CBD5FFF77CFD801B404508
:100C3800F7D915E7FFF776FD401B4045BDD90FE70B
:100C4800003802400000474200700040364DAB6853
:100C580003F00C03082B3DD0344B002202281A66FF
:100C68002BD1FFF75FFD06462B6899011FD4D4E905
:100C780007321343626A43EA8213E26A43EA026371
:100C8800A26A5208013A43EA02436B60274B264D99
:100C980001221A66FFF746FD04462B689A013FF5C4
:100CA800B1AEFFF73FFD001B0228F6D9D8E6FFF7E3
:100CB80039FD801B0228D7D9D2E6FFF733FD044659
:100CC8002B689B017FF59EAEFFF72CFD001B0228C9
:100CD800F6D9C5E601283FF4C4AE6B68E26903F4AF
:100CE800800191427FF4A5AE216A03F03F028A4257
:100CF8007FF49FAE616A47F6C0721A40B2EB811F5B
:100D08007FF497AEA26A520803F44031013AB1EB7E
:100D1800024F7FF48EAEE26A03F07063B3EB026FAA
:100D28003FF470AE85E600BF00380240000047423D
:100D3800134908B58B6803F00C03042B1CD0082B4F
:100D48001CD14A684B68496813F4800314BF0D48E6
:100D58000D48C1F3881118BF002302F03F02A1FB20
:100D68000001FFF72DFA064B5B68C3F3014301331B
:100D78005B00B0FBF3F008BD0248FCE70248FAE765
:100D88000038024040787D010024F4002DE9F0414C
:100D98000D46044610B90120BDE8F081434B1A689E
:100DA80002F007028A4228D321688F072DD4C8078A
:100DB80040D43E4B1A6802F00702AA4265D822685E
:100DC80051076BD4130707D5394A2169936823F46F
:100DD800604343EAC1039360FFF7AAFF344B354AE7
:100DE8009B68C3F30313D35CD840334B1860334B71
:100DF8001868FFF74DFC0020CEE7CAB21A701B68CE
:100E080003F007038B42C6D1CEE7294B11F0040F3C
:100E18001EBF9A6842F4E0529A600E0742BF9A6871
:100E280042F460429A609A68A06822F0F002024395
:100E38009A60BCE762681E4B012A1CD11B6813F438
:100E4800003FA8D01A4EB36823F003031343B360DE
:100E5800FFF768FC41F288380746B368626803F018
:100E68000C03B3EB820FA4D0FFF75CFCC01B40451A
:100E7800F3D9032090E7911E01291B6802D813F0CB
:100E8800007FDEE713F0020FDBE7EAB21A701B6897
:100E980003F00703AB427FF47EAF90E70449E068B4
:100EA8008B6823F4E05303438B608BE7003C0240DC
:100EB80000380240380F0008000000200800002019
:100EC80002440346934200D1704703F8011BF9E737
:100ED80070B50D4D0D4C641BA4100026A64209D117
:100EE8000B4D0C4C00F018F8641BA4100026A64209
:100EF80005D170BD55F8043B98470136EEE755F823
:100F0800043B98470136F2E7500F0008500F0008DD
:100F1800500F0008540F0008F8B500BFF8BC08BC13
:100F28009E467047F8B500BFF8BC08BC9E4670479F
:100F38000000000000000000010203040607080981
:080F4800B0F2FF7F0100000080
:040F5000AD010008E7
:040F54008901000807
:0C0F58000024F400010000001000000064
:0400000508000645A4
:00000001FF
